{
  "contractName": "SocialMedia",
  "abi": [
    {
      "constant": true,
      "inputs": [
        {
          "name": "",
          "type": "uint256"
        }
      ],
      "name": "users",
      "outputs": [
        {
          "name": "",
          "type": "address"
        }
      ],
      "payable": false,
      "stateMutability": "view",
      "type": "function"
    },
    {
      "constant": true,
      "inputs": [
        {
          "name": "",
          "type": "address"
        },
        {
          "name": "",
          "type": "uint256"
        }
      ],
      "name": "subscribedHashtags",
      "outputs": [
        {
          "name": "",
          "type": "bytes32"
        }
      ],
      "payable": false,
      "stateMutability": "view",
      "type": "function"
    },
    {
      "constant": true,
      "inputs": [
        {
          "name": "",
          "type": "uint256"
        }
      ],
      "name": "hashtags",
      "outputs": [
        {
          "name": "",
          "type": "bytes32"
        }
      ],
      "payable": false,
      "stateMutability": "view",
      "type": "function"
    },
    {
      "constant": true,
      "inputs": [
        {
          "name": "",
          "type": "uint256"
        }
      ],
      "name": "contentById",
      "outputs": [
        {
          "name": "id",
          "type": "uint256"
        },
        {
          "name": "author",
          "type": "address"
        },
        {
          "name": "date",
          "type": "uint256"
        },
        {
          "name": "content",
          "type": "string"
        }
      ],
      "payable": false,
      "stateMutability": "view",
      "type": "function"
    },
    {
      "constant": true,
      "inputs": [
        {
          "name": "",
          "type": "bytes32"
        }
      ],
      "name": "hashtagScore",
      "outputs": [
        {
          "name": "",
          "type": "uint256"
        }
      ],
      "payable": false,
      "stateMutability": "view",
      "type": "function"
    },
    {
      "constant": true,
      "inputs": [
        {
          "name": "",
          "type": "uint256"
        }
      ],
      "name": "contents",
      "outputs": [
        {
          "name": "id",
          "type": "uint256"
        },
        {
          "name": "author",
          "type": "address"
        },
        {
          "name": "date",
          "type": "uint256"
        },
        {
          "name": "content",
          "type": "string"
        }
      ],
      "payable": false,
      "stateMutability": "view",
      "type": "function"
    },
    {
      "constant": true,
      "inputs": [
        {
          "name": "",
          "type": "bytes32"
        }
      ],
      "name": "doesHashtagExist",
      "outputs": [
        {
          "name": "",
          "type": "bool"
        }
      ],
      "payable": false,
      "stateMutability": "view",
      "type": "function"
    },
    {
      "constant": true,
      "inputs": [
        {
          "name": "",
          "type": "bytes32"
        },
        {
          "name": "",
          "type": "uint256"
        }
      ],
      "name": "contentByHashtag",
      "outputs": [
        {
          "name": "id",
          "type": "uint256"
        },
        {
          "name": "author",
          "type": "address"
        },
        {
          "name": "date",
          "type": "uint256"
        },
        {
          "name": "content",
          "type": "string"
        }
      ],
      "payable": false,
      "stateMutability": "view",
      "type": "function"
    },
    {
      "constant": true,
      "inputs": [],
      "name": "latestContentId",
      "outputs": [
        {
          "name": "",
          "type": "uint256"
        }
      ],
      "payable": false,
      "stateMutability": "view",
      "type": "function"
    },
    {
      "constant": true,
      "inputs": [
        {
          "name": "",
          "type": "address"
        }
      ],
      "name": "doesUserExist",
      "outputs": [
        {
          "name": "",
          "type": "bool"
        }
      ],
      "payable": false,
      "stateMutability": "view",
      "type": "function"
    },
    {
      "anonymous": false,
      "inputs": [
        {
          "indexed": true,
          "name": "id",
          "type": "uint256"
        },
        {
          "indexed": true,
          "name": "author",
          "type": "address"
        },
        {
          "indexed": true,
          "name": "date",
          "type": "uint256"
        },
        {
          "indexed": false,
          "name": "content",
          "type": "string"
        },
        {
          "indexed": false,
          "name": "hashtags",
          "type": "bytes32[]"
        }
      ],
      "name": "ContentAdded",
      "type": "event"
    },
    {
      "constant": false,
      "inputs": [
        {
          "name": "_content",
          "type": "string"
        },
        {
          "name": "_hashtags",
          "type": "bytes32[]"
        }
      ],
      "name": "addContent",
      "outputs": [],
      "payable": false,
      "stateMutability": "nonpayable",
      "type": "function"
    },
    {
      "constant": false,
      "inputs": [
        {
          "name": "_hashtag",
          "type": "bytes32"
        }
      ],
      "name": "subscribeToHashtag",
      "outputs": [],
      "payable": false,
      "stateMutability": "nonpayable",
      "type": "function"
    },
    {
      "constant": false,
      "inputs": [
        {
          "name": "_hashtag",
          "type": "bytes32"
        }
      ],
      "name": "unsubsribeToHashtag",
      "outputs": [],
      "payable": false,
      "stateMutability": "nonpayable",
      "type": "function"
    },
    {
      "constant": true,
      "inputs": [
        {
          "name": "_amount",
          "type": "uint256"
        }
      ],
      "name": "getTopHashtags",
      "outputs": [
        {
          "name": "",
          "type": "bytes32[]"
        }
      ],
      "payable": false,
      "stateMutability": "view",
      "type": "function"
    },
    {
      "constant": true,
      "inputs": [],
      "name": "getFollowedHashtags",
      "outputs": [
        {
          "name": "",
          "type": "bytes32[]"
        }
      ],
      "payable": false,
      "stateMutability": "view",
      "type": "function"
    },
    {
      "constant": true,
      "inputs": [
        {
          "name": "_hashtag",
          "type": "bytes32"
        },
        {
          "name": "_amount",
          "type": "uint256"
        }
      ],
      "name": "getContentIdsByHashtag",
      "outputs": [
        {
          "name": "",
          "type": "uint256[]"
        }
      ],
      "payable": false,
      "stateMutability": "view",
      "type": "function"
    },
    {
      "constant": true,
      "inputs": [
        {
          "name": "_id",
          "type": "uint256"
        }
      ],
      "name": "getContentById",
      "outputs": [
        {
          "name": "",
          "type": "uint256"
        },
        {
          "name": "",
          "type": "address"
        },
        {
          "name": "",
          "type": "uint256"
        },
        {
          "name": "",
          "type": "string"
        },
        {
          "name": "",
          "type": "bytes32[]"
        }
      ],
      "payable": false,
      "stateMutability": "view",
      "type": "function"
    },
    {
      "constant": true,
      "inputs": [],
      "name": "sortHashtagsByScore",
      "outputs": [
        {
          "name": "",
          "type": "bytes32[]"
        }
      ],
      "payable": false,
      "stateMutability": "view",
      "type": "function"
    },
    {
      "constant": true,
      "inputs": [
        {
          "name": "_hashtag",
          "type": "bytes32"
        }
      ],
      "name": "checkExistingSubscription",
      "outputs": [
        {
          "name": "",
          "type": "bool"
        }
      ],
      "payable": false,
      "stateMutability": "view",
      "type": "function"
    }
  ],
  "bytecode": "0x608060405234801561001057600080fd5b5061216a806100206000396000f3fe608060405234801561001057600080fd5b50600436106101215760003560e01c8063725ac19a116100ad578063c389ef5e11610071578063c389ef5e146108da578063c5f520e114610939578063c8c804261461097f578063c9a9aed514610a71578063ecb4105414610a8f57610121565b8063725ac19a146105f557806384688db1146106dd578063938430d514610723578063b3c11db6146107b0578063b5ecf912146107f257610121565b806340d65a86116100f457806340d65a861461037557806341428f9d146103d75780634c7365f71461040557806366181def1461055457806370f01a28146105b357610121565b806312b468b2146101265780631947058114610256578063365b98b2146102845780633c9a1a6e146102f2575b600080fd5b6101526004803603602081101561013c57600080fd5b8101908080359060200190929190505050610aeb565b604051808681526020018573ffffffffffffffffffffffffffffffffffffffff1673ffffffffffffffffffffffffffffffffffffffff1681526020018481526020018060200180602001838103835285818151815260200191508051906020019080838360005b838110156101d45780820151818401526020810190506101b9565b50505050905090810190601f1680156102015780820380516001836020036101000a031916815260200191505b50838103825284818151815260200191508051906020019060200280838360005b8381101561023d578082015181840152602081019050610222565b5050505090500197505050505050505060405180910390f35b6102826004803603602081101561026c57600080fd5b8101908080359060200190929190505050610cb2565b005b6102b06004803603602081101561029a57600080fd5b8101908080359060200190929190505050610e1a565b604051808273ffffffffffffffffffffffffffffffffffffffff1673ffffffffffffffffffffffffffffffffffffffff16815260200191505060405180910390f35b61031e6004803603602081101561030857600080fd5b8101908080359060200190929190505050610e56565b6040518080602001828103825283818151815260200191508051906020019060200280838360005b83811015610361578082015181840152602081019050610346565b505050509050019250505060405180910390f35b6103c16004803603604081101561038b57600080fd5b81019080803573ffffffffffffffffffffffffffffffffffffffff16906020019092919080359060200190929190505050610ef8565b6040518082815260200191505060405180910390f35b610403600480360360208110156103ed57600080fd5b8101908080359060200190929190505050610f26565b005b6105526004803603604081101561041b57600080fd5b810190808035906020019064010000000081111561043857600080fd5b82018360208201111561044a57600080fd5b8035906020019184600183028401116401000000008311171561046c57600080fd5b91908080601f016020809104026020016040519081016040528093929190818152602001838380828437600081840152601f19601f820116905080830192505050505050509192919290803590602001906401000000008111156104cf57600080fd5b8201836020820111156104e157600080fd5b8035906020019184602083028401116401000000008311171561050357600080fd5b919080806020026020016040519081016040528093929190818152602001838360200280828437600081840152601f19601f820116905080830192505050505050509192919290505050610fe0565b005b61055c611871565b6040518080602001828103825283818151815260200191508051906020019060200280838360005b8381101561059f578082015181840152602081019050610584565b505050509050019250505060405180910390f35b6105df600480360360208110156105c957600080fd5b8101908080359060200190929190505050611a32565b6040518082815260200191505060405180910390f35b6106216004803603602081101561060b57600080fd5b8101908080359060200190929190505050611a53565b604051808581526020018473ffffffffffffffffffffffffffffffffffffffff1673ffffffffffffffffffffffffffffffffffffffff16815260200183815260200180602001828103825283818151815260200191508051906020019080838360005b8381101561069f578082015181840152602081019050610684565b50505050905090810190601f1680156106cc5780820380516001836020036101000a031916815260200191505b509550505050505060405180910390f35b610709600480360360208110156106f357600080fd5b8101908080359060200190929190505050611b3b565b604051808215151515815260200191505060405180910390f35b6107596004803603604081101561073957600080fd5b810190808035906020019092919080359060200190929190505050611c09565b6040518080602001828103825283818151815260200191508051906020019060200280838360005b8381101561079c578082015181840152602081019050610781565b505050509050019250505060405180910390f35b6107dc600480360360208110156107c657600080fd5b8101908080359060200190929190505050611cac565b6040518082815260200191505060405180910390f35b61081e6004803603602081101561080857600080fd5b8101908080359060200190929190505050611cc4565b604051808581526020018473ffffffffffffffffffffffffffffffffffffffff1673ffffffffffffffffffffffffffffffffffffffff16815260200183815260200180602001828103825283818151815260200191508051906020019080838360005b8381101561089c578082015181840152602081019050610881565b50505050905090810190601f1680156108c95780820380516001836020036101000a031916815260200191505b509550505050505060405180910390f35b6108e2611db9565b6040518080602001828103825283818151815260200191508051906020019060200280838360005b8381101561092557808201518184015260208101905061090a565b505050509050019250505060405180910390f35b6109656004803603602081101561094f57600080fd5b8101908080359060200190929190505050611e4d565b604051808215151515815260200191505060405180910390f35b6109b56004803603604081101561099557600080fd5b810190808035906020019092919080359060200190929190505050611e6d565b604051808581526020018473ffffffffffffffffffffffffffffffffffffffff1673ffffffffffffffffffffffffffffffffffffffff16815260200183815260200180602001828103825283818151815260200191508051906020019080838360005b83811015610a33578082015181840152602081019050610a18565b50505050905090810190601f168015610a605780820380516001836020036101000a031916815260200191505b509550505050505060405180910390f35b610a79611f6f565b6040518082815260200191505060405180910390f35b610ad160048036036020811015610aa557600080fd5b81019080803573ffffffffffffffffffffffffffffffffffffffff169060200190929190505050611f75565b604051808215151515815260200191505060405180910390f35b6000806000606080610afb611f95565b600360008881526020019081526020016000206040518060a0016040529081600082015481526020016001820160009054906101000a900473ffffffffffffffffffffffffffffffffffffffff1673ffffffffffffffffffffffffffffffffffffffff1673ffffffffffffffffffffffffffffffffffffffff16815260200160028201548152602001600382018054600181600116156101000203166002900480601f016020809104026020016040519081016040528092919081815260200182805460018160011615610100020316600290048015610c1c5780601f10610bf157610100808354040283529160200191610c1c565b820191906000526020600020905b815481529060010190602001808311610bff57829003601f168201915b5050505050815260200160048201805480602002602001604051908101604052809291908181526020018280548015610c7457602002820191906000526020600020905b815481526020019060010190808311610c60575b505050505081525050905080600001518160200151826040015183606001518460800151819150809050955095509550955095505091939590929450565b610cbb81611b3b565b15610e175760008090505b6000803373ffffffffffffffffffffffffffffffffffffffff1673ffffffffffffffffffffffffffffffffffffffff16815260200190815260200160002080549050811015610e1557816000803373ffffffffffffffffffffffffffffffffffffffff1673ffffffffffffffffffffffffffffffffffffffff1681526020019081526020016000208281548110610d5957fe5b90600052602060002001541415610e08576000803373ffffffffffffffffffffffffffffffffffffffff1673ffffffffffffffffffffffffffffffffffffffff1681526020019081526020016000208181548110610db357fe5b9060005260206000200160009055600160008381526020019081526020016000206000815480929190600190039190505550610ded611871565b60089080519060200190610e02929190611fda565b50610e15565b8080600101915050610cc6565b505b50565b60068181548110610e2757fe5b906000526020600020016000915054906101000a900473ffffffffffffffffffffffffffffffffffffffff1681565b606080826008805490501015610eef57600880549050604051908082528060200260200182016040528015610e9a5781602001602082028038833980820191505090505b50905060008090505b600880549050811015610eed5760088181548110610ebd57fe5b9060005260206000200154828281518110610ed457fe5b6020026020010181815250508080600101915050610ea3565b505b80915050919050565b60006020528160005260406000208181548110610f1157fe5b90600052602060002001600091509150505481565b610f2f81611b3b565b610fdd576000803373ffffffffffffffffffffffffffffffffffffffff1673ffffffffffffffffffffffffffffffffffffffff1681526020019081526020016000208190806001815401808255809150509060018203906000526020600020016000909192909190915055506001600082815260200190815260200160002060008154809291906001019190505550610fc6611871565b60089080519060200190610fdb929190611fda565b505b50565b6000825111611057576040517f08c379a00000000000000000000000000000000000000000000000000000000081526004018080602001828103825260178152602001807f436f6e74656e742063616e6e6f7420626520656d70747900000000000000000081525060200191505060405180910390fd5b61105f611f95565b6040518060a0016040528060095481526020013373ffffffffffffffffffffffffffffffffffffffff1681526020014281526020018481526020018381525090506000825114156112c357600260007f67656e6572616c00000000000000000000000000000000000000000000000000815260200190815260200160002081908060018154018082558091505090600182039060005260206000209060050201600090919290919091506000820151816000015560208201518160010160006101000a81548173ffffffffffffffffffffffffffffffffffffffff021916908373ffffffffffffffffffffffffffffffffffffffff160217905550604082015181600201556060820151816003019080519060200190611180929190612027565b50608082015181600401908051906020019061119d9291906120a7565b50505050600160007f67656e6572616c00000000000000000000000000000000000000000000000000815260200190815260200160002060008154809291906001019190505550600460007f67656e6572616c00000000000000000000000000000000000000000000000000815260200190815260200160002060009054906101000a900460ff166112be5760088060018154018082558091505090600182039060005260206000200160007f67656e6572616c00000000000000000000000000000000000000000000000000909190915055506001600460007f67656e6572616c00000000000000000000000000000000000000000000000000815260200190815260200160002060006101000a81548160ff0219169083151502179055505b6114b8565b60008090505b82518110156114b657600260008483815181106112e257fe5b6020026020010151815260200190815260200160002082908060018154018082558091505090600182039060005260206000209060050201600090919290919091506000820151816000015560208201518160010160006101000a81548173ffffffffffffffffffffffffffffffffffffffff021916908373ffffffffffffffffffffffffffffffffffffffff16021790555060408201518160020155606082015181600301908051906020019061139b929190612027565b5060808201518160040190805190602001906113b89291906120a7565b50505050600160008483815181106113cc57fe5b60200260200101518152602001908152602001600020600081548092919060010191905055506004600084838151811061140257fe5b6020026020010151815260200190815260200160002060009054906101000a900460ff166114a957600883828151811061143857fe5b6020026020010151908060018154018082558091505090600182039060005260206000200160009091929091909150555060016004600085848151811061147b57fe5b6020026020010151815260200190815260200160002060006101000a81548160ff0219169083151502179055505b80806001019150506112c9565b505b6114c0611871565b600890805190602001906114d5929190611fda565b50806003600060095481526020019081526020016000206000820151816000015560208201518160010160006101000a81548173ffffffffffffffffffffffffffffffffffffffff021916908373ffffffffffffffffffffffffffffffffffffffff160217905550604082015181600201556060820151816003019080519060200190611563929190612027565b5060808201518160040190805190602001906115809291906120a7565b50905050600781908060018154018082558091505090600182039060005260206000209060050201600090919290919091506000820151816000015560208201518160010160006101000a81548173ffffffffffffffffffffffffffffffffffffffff021916908373ffffffffffffffffffffffffffffffffffffffff160217905550604082015181600201556060820151816003019080519060200190611629929190612027565b5060808201518160040190805190602001906116469291906120a7565b50505050600560003373ffffffffffffffffffffffffffffffffffffffff1673ffffffffffffffffffffffffffffffffffffffff16815260200190815260200160002060009054906101000a900460ff1661175a5760063390806001815401808255809150509060018203906000526020600020016000909192909190916101000a81548173ffffffffffffffffffffffffffffffffffffffff021916908373ffffffffffffffffffffffffffffffffffffffff160217905550506001600560003373ffffffffffffffffffffffffffffffffffffffff1673ffffffffffffffffffffffffffffffffffffffff16815260200190815260200160002060006101000a81548160ff0219169083151502179055505b423373ffffffffffffffffffffffffffffffffffffffff166009547fd83f181a6b772f04ee94aad728a7afa5b88dfc85b451eb72aa14c184025eff148686604051808060200180602001838103835285818151815260200191508051906020019080838360005b838110156117dc5780820151818401526020810190506117c1565b50505050905090810190601f1680156118095780820380516001836020036101000a031916815260200191505b50838103825284818151815260200191508051906020019060200280838360005b8381101561184557808201518184015260208101905061182a565b5050505090500194505050505060405180910390a4600960008154809291906001019190505550505050565b60608060088054806020026020016040519081016040528092919081815260200182805480156118c057602002820191906000526020600020905b8154815260200190600101908083116118ac575b5050505050905060606008805490506040519080825280602002602001820160405280156118fd5781602001602082028038833980820191505090505b509050600080905060008090505b8351811015611a285760006001820190505b84518110156119e6576001600086838151811061193657fe5b60200260200101518152602001908152602001600020546001600087858151811061195d57fe5b602002602001015181526020019081526020016000205410156119d957600085838151811061198857fe5b6020026020010151905085828151811061199e57fe5b60200260200101518684815181106119b257fe5b602002602001018181525050808683815181106119cb57fe5b602002602001018181525050505b808060010191505061191d565b508381815181106119f357fe5b6020026020010151838381518110611a0757fe5b6020026020010181815250508180600101925050808060010191505061190b565b5081935050505090565b60088181548110611a3f57fe5b906000526020600020016000915090505481565b60036020528060005260406000206000915090508060000154908060010160009054906101000a900473ffffffffffffffffffffffffffffffffffffffff1690806002015490806003018054600181600116156101000203166002900480601f016020809104026020016040519081016040528092919081815260200182805460018160011615610100020316600290048015611b315780601f10611b0657610100808354040283529160200191611b31565b820191906000526020600020905b815481529060010190602001808311611b1457829003601f168201915b5050505050905084565b600080600090505b6000803373ffffffffffffffffffffffffffffffffffffffff1673ffffffffffffffffffffffffffffffffffffffff16815260200190815260200160002080549050811015611bfe57826000803373ffffffffffffffffffffffffffffffffffffffff1673ffffffffffffffffffffffffffffffffffffffff1681526020019081526020016000208281548110611bd657fe5b90600052602060002001541415611bf1576001915050611c04565b8080600101915050611b43565b50600090505b919050565b60608082604051908082528060200260200182016040528015611c3b5781602001602082028038833980820191505090505b50905060008090505b83811015611ca157600260008681526020019081526020016000208181548110611c6a57fe5b906000526020600020906005020160000154828281518110611c8857fe5b6020026020010181815250508080600101915050611c44565b508091505092915050565b60016020528060005260406000206000915090505481565b60078181548110611cd157fe5b90600052602060002090600502016000915090508060000154908060010160009054906101000a900473ffffffffffffffffffffffffffffffffffffffff1690806002015490806003018054600181600116156101000203166002900480601f016020809104026020016040519081016040528092919081815260200182805460018160011615610100020316600290048015611daf5780601f10611d8457610100808354040283529160200191611daf565b820191906000526020600020905b815481529060010190602001808311611d9257829003601f168201915b5050505050905084565b60606000803373ffffffffffffffffffffffffffffffffffffffff1673ffffffffffffffffffffffffffffffffffffffff168152602001908152602001600020805480602002602001604051908101604052809291908181526020018280548015611e4357602002820191906000526020600020905b815481526020019060010190808311611e2f575b5050505050905090565b60046020528060005260406000206000915054906101000a900460ff1681565b60026020528160005260406000208181548110611e8657fe5b9060005260206000209060050201600091509150508060000154908060010160009054906101000a900473ffffffffffffffffffffffffffffffffffffffff1690806002015490806003018054600181600116156101000203166002900480601f016020809104026020016040519081016040528092919081815260200182805460018160011615610100020316600290048015611f655780601f10611f3a57610100808354040283529160200191611f65565b820191906000526020600020905b815481529060010190602001808311611f4857829003601f168201915b5050505050905084565b60095481565b60056020528060005260406000206000915054906101000a900460ff1681565b6040518060a0016040528060008152602001600073ffffffffffffffffffffffffffffffffffffffff1681526020016000815260200160608152602001606081525090565b828054828255906000526020600020908101928215612016579160200282015b82811115612015578251825591602001919060010190611ffa565b5b50905061202391906120f4565b5090565b828054600181600116156101000203166002900490600052602060002090601f016020900481019282601f1061206857805160ff1916838001178555612096565b82800160010185558215612096579182015b8281111561209557825182559160200191906001019061207a565b5b5090506120a39190612119565b5090565b8280548282559060005260206000209081019282156120e3579160200282015b828111156120e25782518255916020019190600101906120c7565b5b5090506120f091906120f4565b5090565b61211691905b808211156121125760008160009055506001016120fa565b5090565b90565b61213b91905b8082111561213757600081600090555060010161211f565b5090565b9056fea165627a7a7230582012ce9605909ff36cdd15e03103ebe05787663340e4f241370ad83fbbd376ede00029",
  "source": "// This contract allows people to publish strings of text \r\n// and follow hashtags. User accounts will be anonymous, addresses\r\n// will be the only identifiers\r\n\r\npragma solidity ^0.5.0;\r\n\r\ncontract SocialMedia {\r\n    struct Content {\r\n        uint256 id;\r\n        address author;\r\n        uint256 date;\r\n        string content;\r\n        bytes32[] hashtags;\r\n    }\r\n\r\n    event ContentAdded(\r\n        uint256 indexed id, \r\n        address indexed author,\r\n        uint256 indexed date, \r\n        string content,\r\n        bytes32[] hashtags\r\n    );\r\n\r\n    mapping(address => bytes32[]) public subscribedHashtags;\r\n    mapping(bytes32 => uint256) public hashtagScore;\r\n    mapping(bytes32 => Content[]) public contentByHashtag;\r\n    mapping(uint256 => Content) public contentById;\r\n    mapping(bytes32 => bool) public doesHashtagExist;\r\n    mapping(address => bool) public doesUserExist;\r\n    address[] public users;\r\n    Content[] public contents;\r\n    bytes32[] public hashtags;\r\n    uint256 public latestContentId;\r\n\r\n    // to add new content. If no # are sent, content added to #general hashtag list\r\n    function addContent(\r\n        string memory _content, \r\n        bytes32[] memory _hashtags\r\n    ) public {\r\n        require(bytes(_content).length > 0, 'Content cannot be empty');\r\n        \r\n        // create Content struct instance with the required param, \r\n        // populating the mappings that use that struct\r\n        Content memory newContent = Content(\r\n            latestContentId, \r\n            msg.sender, \r\n            now, \r\n            _content, \r\n            _hashtags\r\n        );\r\n\r\n        //If no # specified then auto saved to #general hashtag\r\n        if(_hashtags.length == 0) {\r\n            contentByHashtag['general'].push(newContent);\r\n            hashtagScore['general']++;\r\n            if(!doesHashtagExist['general']) {\r\n                hashtags.push('general');\r\n                doesHashtagExist['general'] = true;\r\n            }\r\n        // Content added to all hashtags specified\r\n        // Create new ones that haven't been there b4    \r\n        } else {\r\n            for(uint256 i = 0; i < _hashtags.length; i++) {\r\n                contentByHashtag[_hashtags[i]].push(newContent);\r\n                hashtagScore[_hashtags[i]]++;\r\n                if(!doesHashtagExist[_hashtags[i]]) {\r\n                    hashtags.push(_hashtags[i]);\r\n                    doesHashtagExist[_hashtags[i]] = true;\r\n                }\r\n            }\r\n        }\r\n        hashtags = sortHashtagsByScore();\r\n        contentById[latestContentId] = newContent;\r\n        contents.push(newContent);\r\n\r\n        //Add user to the array of users if not already\r\n        if(!doesUserExist[msg.sender]) {\r\n            users.push(msg.sender);\r\n            doesUserExist[msg.sender] = true;\r\n        }\r\n\r\n        // emit event to notify others\r\n        emit ContentAdded(\r\n            latestContentId,\r\n            msg.sender,\r\n            now,\r\n            _content,\r\n            _hashtags \r\n        );\r\n        latestContentId++;\r\n    }\r\n\r\n    // To subscribe to a hashtag\r\n    function subscribeToHashtag(bytes32 _hashtag) public {\r\n        if(!checkExistingSubscription(_hashtag)) {\r\n            subscribedHashtags[msg.sender].push(_hashtag);\r\n            hashtagScore[_hashtag]++;\r\n            hashtags = sortHashtagsByScore();\r\n        }\r\n    }\r\n    \r\n    // To unsubscribe, if not subscribed then does nothing\r\n    function unsubsribeToHashtag(bytes32 _hashtag) public {\r\n        if(checkExistingSubscription(_hashtag)) {\r\n            for(uint256 i = 0; i < subscribedHashtags[msg.sender].length; i++) {\r\n                if(subscribedHashtags[msg.sender][i] == _hashtag) {\r\n                    delete subscribedHashtags[msg.sender][i];\r\n                    hashtagScore[_hashtag]--;\r\n                    hashtags = sortHashtagsByScore();\r\n                    break;\r\n                }\r\n            }\r\n        }\r\n    }\r\n\r\n    // Returns indicated amount of top hashtags\r\n    function getTopHashtags(uint256 _amount) public view returns(bytes32[] memory) {\r\n        bytes32[] memory result;\r\n\r\n        if(hashtags.length < _amount) {\r\n            result = new bytes32[] (hashtags.length);\r\n            for(uint256 i = 0; i < hashtags.length; i++) {\r\n                result[i] = hashtags[i];\r\n            }\r\n        }\r\n        return result;\r\n    }\r\n\r\n    // Get the followed hashtag names for this msg.sender\r\n    function getFollowedHashtags() public view returns (bytes32[] memory) {\r\n        return subscribedHashtags[msg.sender];\r\n    }\r\n\r\n    // get content for given hashtag. Returns the ids b/c we can't return arrays of strings or structs\r\n    function getContentIdsByHashtag(bytes32 _hashtag, uint256 _amount) public view returns(uint256[] memory) {\r\n        uint256[] memory ids = new uint256[](_amount);\r\n        for(uint256 i = 0; i < _amount; i++) {\r\n            ids[i] = contentByHashtag[_hashtag][i].id;\r\n        }\r\n        return ids;\r\n    }\r\n\r\n    // Returns data for a given id\r\n    function getContentById(uint256 _id) public view returns(\r\n        uint256, \r\n        address,\r\n        uint256,\r\n        string memory,\r\n        bytes32[] memory\r\n    ) {\r\n        Content memory c = contentById[_id];\r\n        return (c.id, c.author, c.date, c.content, c.hashtags);\r\n    }\r\n\r\n    // Sorts hashtags given their hashtag score. Returns sorted array\r\n    function sortHashtagsByScore() public view returns(bytes32[] memory) {\r\n        bytes32[] memory _hashtags = hashtags;\r\n        bytes32[] memory sortedHashtags = new bytes32[](hashtags.length);\r\n        uint256 lastId = 0;\r\n\r\n        for(uint256 i = 0; i < _hashtags.length; i++) {\r\n            for (uint256 j = i + 1; j < _hashtags.length; j++) {\r\n                if(hashtagScore[_hashtags[i]] < hashtagScore[_hashtags[j]]) {\r\n                    bytes32 temporaryhashtag = _hashtags[i];\r\n                    _hashtags[i] = _hashtags[j];\r\n                    _hashtags[j] = temporaryhashtag;\r\n                }\r\n            }\r\n\r\n            sortedHashtags[lastId] = _hashtags[i];\r\n            lastId++;\r\n        }\r\n        return sortedHashtags;\r\n    }\r\n\r\n    // Check if user is already subscribed to a hashtag\r\n    function checkExistingSubscription(bytes32 _hashtag) public view returns(bool) {\r\n        for(uint256 i = 0; i < subscribedHashtags[msg.sender].length; i++) {\r\n            if(subscribedHashtags[msg.sender][i] == _hashtag) return true;\r\n        }\r\n        return false;\r\n    }\r\n}",
  "sourcePath": "C:/Users/edwar/social-media-dapp/contracts/SocialMedia.sol",
  "compiler": {
    "name": "solc",
    "version": "0.5.8+commit.23d335f2.Emscripten.clang"
  },
  "schemaVersion": "3.0.16",
  "updatedAt": "2020-08-08T11:06:41.783Z",
  "devdoc": {
    "methods": {}
  },
  "userdoc": {
    "methods": {}
  }
}